:0200000021E1FC
:03000B0051563219
:10002300209902112932C0D0C0E0D2D3D2D4C298D1
:10003300E599547F75070020200B202304115E806F
:1000430015116480111179BA0F0CC220117D11B101
:1000530011BD11CF31BBD0E0D0D022B40D02D223D9
:1000630022C223B40A03116D2222D220D2227507A1
:10007300007A00783022F6080A227A0074302404C9
:10008300F87B007940E6B42E0611ABD224800293AC
:10009300F70A0809BA08EE20240731A2E53B93F5D5
:1000A30046C2247A0078302219E754FBF722E5335D
:1000B300434920B42D035349DF22E53053497F439D
:1000C3004908B455064349805349F722E53EB467CE
:1000D3000B7547FF754826E53A319A22B4430775F5
:1000E300478575482722B425077547857548D72264
:1000F300B47A0F754756754835E538319AE53A3184
:100103009A22B4620B754767754846E537319A22E0
:10011300B4741EE53DB47A0B754756754835E5381A
:10012300319A22B46319754727754847E53A319ADE
:1001330022B46D16754796754856E539319A22757E
:10014300475475484DE53A319A22B44E1775472600
:090153007548D6E53AB42E0122EC
:10015C00E54654FBF54631A231B522B46C0B75471C
:10016C0047754867E539319A22B4730B7547967514
:10017C004807E539319A22B4540C7547967548678F
:10018C00E53A319A22227547FF7548FF2222B42E98
:10019C000431A231B52285414085424185434285D7
:1001AC00444385454485464522743093F546227474
:1001BC002093FC743093B5401B8C40B541168C4198
:1001CC00B542118C42B5430C8C43B544078C44B5F5
:1001DC0045028C45227580FF75A0FF750700D2B6CD
:1001EC00D2B775815FC220C221C222C22353877F3E
:1001FC00438922758C00D28C75985043A892751047
:10020C004075183051C37D00900310758DFDD28E52
:10021C00512080FE758DFD51ED20222A758DFA51ED
:10022C00ED202222758DF451ED20221A758DE851A6
:10023C00ED202212758DD051ED20220A758DA05122
:10024C00ED20220280CE2022FD22C0D0C0E0D2D4EC
:10025C00C2D3517D86800A08BA0A1178407A00050B
:10026C0007AF07BFFF06C220C22251C3D0E0D0D0D7
:10027C002275A0FF7580FFD2B6D2B7BA0003C2A612
:10028C0022BA0103C2A522BA0203C2A422BA0303F2
:0F029C00C2A322BA0403C2A222BA0503C2A1223E
:1002AB00BA0603C2A022BA0703C2B622BA0803C217
:1002BB00B722BA0902C2A722C0D0C2D3C2D4784097
:1002CB0076460876850876E50876E5087620087682
:1002DB00FF0876FF0876FF0876FF0876FF7840D098
:1002EB00D02285FF5085FF51755203D552FDD55154
:1002FB00F7D550F122247E151C4E8C843E040C7FC6
:10030B00FDFBF7EFDFFFFFFFFFFFFFFFFFFFFFFF30
:10031B00FFFFFFFFFFFFFFFFFFFFFFFFFFFFFFFFE2
:10032B00FFFFFFFFFFFFFFFFFFFFFFFFFFFFFFFFD2
:10033B00FFFFDFFFFF247E151C4E8C843E040CFF59
:10034B00FFFFFFFFFFFF84462754078726C4FE6C81
:10035B00456796D656858CD72C4764364DE44C357D
:10036B00FFFFFFFFFFFF84462754078726C4FE6C61
:10037B00456796D656858CD72C4764364DE44C355D
:05038B00FFFFFFFFFF72
:00000001FF
